:020000040800F2
:1000000000000820F5BB0008699F0008779F0008E2
:100010007D9F0008839F0008899F00080000000062
:100020000000000000000000000000008F9F00089A
:100030009D9F000800000000AB9F0008B99F0008CA
:1000400045BC000845BC000845BC000845BC00088C
:1000500045BC000845BC000845BC000845BC00087C
:1000600045BC000845BC000845BC000845BC00086C
:1000700045BC000845BC000845BC000845BC00085C
:1000800045BC000845BC000845BC000845BC00084C
:1000900045BC000845BC000845BC000845BC00083C
:1000A00045BC000845BC000845BC000845BC00082C
:1000B00045BC000845BC000845BC000845BC00081C
:1000C00045BC000845BC000845BC000845BC00080C
:1000D00045BC000845BC000845BC000845BC0008FC
:1000E00045BC000845BC000845BC000845BC0008EC
:1000F00045BC000845BC000845BC000845BC0008DC
:1001000045BC000845BC000845BC000845BC0008CB
:1001100045BC000845BC000845BC000845BC0008BB
:1001200045BC000845BC000845BC000845BC0008AB
:1001300045BC000845BC000845BC000845BC00089B
:1001400045BC000845BC000845BC0008C59F000828
:1001500045BC000845BC000845BC000845BC00087B
:1001600045BC000845BC000845BC000845BC00086B
:1001700045BC000845BC000845BC00080000000064
:1001800045BC000845BC000845BC000845BC00084B
:1001900045BC000845BC000845BC000845BC00083B
:1001A000D99F000845BC0008ED9F000845BC000829
:1001B00001A0000845BC000845BC000845BC00087B
:1001C00045BC000845BC00080000000045BC000814
:1001D00045BC000845BC000845BC000845BC0008FB
:1001E00045BC000845BC000845BC000845BC0008EB
:0801F00045BC000845BC0008F5
:1002000010B5054C237833B9044B13B10448AFF350
:1002100000800123237010BDE000002000000000DA
:10022000109C010808B5034B1BB103490348AFF309
:10023000008008BD00000000E4000020109C0108C0
:1002400001F0FF01102A2BDB10F0070F08D010F887
:10025000013B013A8B422DD010F0070F42B3F6D18B
:10026000F0B441EA012141EA014122F007047FF0A4
:1002700000070023F0E80256083C85EA010586EAFB
:10028000010685FA47F5A3FA87F586FA47F6A5FA37
:1002900087F68EB9EED1F0BC01F0FF0102F0070243
:1002A00032B110F8013B013A83EA010313B1F8D1EE
:1002B0000020704701387047002D06BF35460338CF
:1002C000073815F0010F07D1013015F4807F02BF08
:1002D000013015F4C03F0130F0BC0138704700BF59
:1002E00053B94AB9002908BF00281CBF4FF0FF319D
:1002F0004FF0FF3000F072B9ADF1080C6DE904CE9B
:1003000000F006F8DDF804E0DDE9022304B07047F0
:100310002DE9F047089E04468846002B4BD18A42BF
:10032000154667D9B2FA82F24AB1C2F1200701FA42
:1003300002F320FA07F7954047EA030894404FEA92
:10034000154E230CB8FBFEF71FFA85FC0EFB178831
:1003500043EA084307FB0CF1994209D9EB1807F16E
:10036000FF3080F01B81994240F21881023F2B44FC
:100370005B1AA4B2B3FBFEF00EFB103344EA034455
:1003800000FB0CFCA44509D92C1900F1FF3380F0C7
:100390000781A44540F2048102382C4440EA07401A
:1003A000A4EB0C0400271EB1D4400023C6E900438F
:1003B0003946BDE8F0878B4209D9002E00F0EB806A
:1003C0000027C6E9000138463946BDE8F087B3FA90
:1003D00083F7002F47D18B4202D3824200F2FA808A
:1003E000841A61EB030301209846002EE0D0C6E991
:1003F0000048DDE702B9FFDEB2FA82F2002A40F0DF
:100400008F80491B4FEA154E1FFA85F80127B1FB73
:10041000FEFC230C0EFB1C1143EA014308FB0CF10C
:10042000994207D9EB180CF1FF3002D2994200F241
:10043000CD808446591AA3B2B1FBFEF00EFB101416
:1004400043EA044408FB00F8A04507D92C1900F141
:10045000FF3302D2A04500F2B6801846A4EB080490
:1004600040EA0C409FE7C7F1200CBB4022FA0CFE8B
:100470004EEA030E01FA07F420FA0CF521FA0CF308
:100480004FEA1E482543B3FBF8F92C0C08FB19333F
:100490001FFA8EFA44EA034309FB0AF49C4202FA6B
:1004A00007F200FA07F10BD91EEB030309F1FF3045
:1004B00080F087809C4240F28480A9F10209734455
:1004C0001B1BADB2B3FBF8F008FB103345EA034445
:1004D00000FB0AFAA24508D91EEB040400F1FF3321
:1004E0006BD2A24569D90238744440EA0940A0FBA6
:1004F0000289A4EB0A044C45C2464B4654D351D062
:10050000002E69D0B1EB0A0564EB030404FA0CFC7D
:10051000FD40FC404CEA0505C6E90054002747E7CA
:10052000C2F1200320FA03F7954001FA02F021FA04
:1005300003F34FEA154E3843010CB3FBFEF71FFAE5
:1005400085F80EFB173341EA034107FB08F38B42A2
:1005500004FA02F407D9691807F1FF3C2FD28B4245
:100560002DD9023F2944CB1A81B2B3FBFEF00EFB1A
:10057000103341EA034100FB08F38B4207D96918A5
:1005800000F1FF3C17D28B4215D902382944C91A11
:1005900040EA07473BE73746304609E70746E7E6C4
:1005A0001846FBE64145ABD2B8EB020A69EB0E02F6
:1005B00001381346A4E76046E9E7184695E7674621
:1005C000D1E781467CE702382C4447E7ACF1020CC6
:1005D0002B442FE7384608E73746E9E6704700BF67
:1005E00080B500AF0B4B1B680A4A43F400731360DD
:1005F000084B1B68074A43F480731360032000F024
:100600004DF9002000F008F809F092FA002318468E
:1006100080BD00BF003C024080B582B000AF786072
:10062000124B1A68124B1B7819464FF47A73B3FBBE
:10063000F1F3B2FBF3F3184600F065F90346002B23
:1006400001D001230EE07B680F2B0AD800227968C5
:100650004FF0FF3000F02DF9064A7B68136000234D
:1006600000E0012318460837BD4680BD1000002079
:10067000080000200400002080B400AF064B1B7867
:100680001A46064B1B681344044A136000BFBD465C
:100690005DF8047B704700BF080000209C13002019
:1006A00080B400AF034B1B681846BD465DF8047B61
:1006B000704700BF9C13002080B584B000AF786005
:1006C000FFF7EEFFB8607B68FB60FB68B3F1FF3FAC
:1006D00005D0094B1B781A46FB681344FB6000BF2A
:1006E000FFF7DEFF0246BB68D31AFA689A42F7D8D2
:1006F00000BF1037BD4680BD0800002080B485B023
:1007000000AF78607B6803F00703FB600B4BDB688E
:10071000BB60BA684FF6FF031340BB60FB681A0268
:10072000BB681A43064B1343BB60044ABB68D360E3
:1007300000BF1437BD465DF8047B704700ED00E054
:100740000000FA0580B400AF044BDB681B0A03F01D
:1007500007031846BD465DF8047B704700ED00E0D6
:1007600080B483B000AF0346FB7197F90730002BCC
:100770000BDBFB7903F01F02074997F907305B0990
:10078000012000FA02F241F8232000BF0C37BD46D9
:100790005DF8047B704700BF00E100E080B483B0E7
:1007A00000AF03463960FB7197F90730002B0ADB75
:1007B0003B68DAB20C4997F907301201D2B20B4408
:1007C00083F800230AE03B68DAB20849FB7903F0BA
:1007D0000F03043B1201D2B20B441A7600BF0C3750
:1007E000BD465DF8047B704700E100E000ED00E0ED
:1007F00080B489B000AFF860B9607A60FB6803F03C
:100800000703FB61FB69C3F10703042B28BF042323
:10081000BB61FB690433062B02D9FB69033B00E093
:1008200000237B614FF0FF32BB6902FA03F3DA4326
:10083000BB681A407B699A404FF0FF317B6901FA2F
:1008400003F3D9437B680B40134318462437BD4656
:100850005DF8047B7047000080B582B000AF78601F
:100860007B68013BB3F1807F01D301230FE00A4A8B
:100870007B68013B53600F214FF0FF30FFF78EFF85
:10088000054B00229A60044B07221A600023184689
:100890000837BD4680BD00BF10E000E080B582B0E3
:1008A00000AF78607868FFF729FF00BF0837BD46C2
:1008B00080BD80B586B000AF0346B9607A60FB7337
:1008C00000237B61FFF73EFF78617A68B968786939
:1008D000FFF78EFF024697F90F3011461846FFF7D3
:1008E0005DFF00BF1837BD4680BD80B582B000AF48
:1008F0000346FB7197F907301846FFF731FF00BF39
:100900000837BD4680BD80B582B000AF786078689A
:10091000FFF7A2FF034618460837BD4680BD00001A
:1009200080B400AFBFF35F8F064B5B6A054A23F4C8
:1009300080335362044B00225A6000BFBD465DF80D
:10094000047B704700ED00E090ED00E080B483B0E0
:1009500000AF78600A4A7B6843F001035360094B9B
:100960005B6A084A43F480335362BFF34F8FBFF38F
:100970006F8F00BF0C37BD465DF8047B704700BF2A
:1009800090ED00E000ED00E080B483B000AF78604F
:100990007B685A781D4B9A607B681B78002B29D0A6
:1009A0001A4A7B685B68D3607B681B7B1A077B688D
:1009B000DB7A1B061A437B689B7ADB041A437B684D
:1009C0005B7B9B041A437B689B7B5B041A437B68BD
:1009D000DB7B1B041A437B685B7A1B021A437B6830
:1009E0001B7A5B0013437A6812781146074A0B435F
:1009F000136105E0054B0022DA60044B00221A6106
:100A000000BF0C37BD465DF8047B704790ED00E0F9
:100A100080B582B000AF78607B68002B01D10123E4
:100A200054E07B685B7FDBB2002B05D17B68002242
:100A30001A77786809F0A0F87B6802225A777B68F9
:100A40001B79002B0CD17B681B68224A5A617B689A
:100A50001B689A687B681B6822F018029A600CE099
:100A60007B6899687B68DB681A46786800F034F820
:100A70000346002B01D0012328E07B685B79002B23
:100A800005D17B681B684FF0FF321A6104E07B6878
:100A90001B687A6812691A617B681B689B6823F07F
:100AA00060017B685A697B681B680A439A607B68AF
:100AB0001B689B6823F080017B689A697B681B68D0
:100AC0000A439A607B6801225A7700231846083748
:100AD000BD4680BDB71DC10480B487B000AFF860CB
:100AE000B9607A600023FB751F233B6100BF3B693F
:100AF0005A1E3A61002B09D03B6903F01F03BA6804
:100B000022FA03F303F00103002BF0D07B68182BCB
:100B100046D801A252F823F0A70B0008A10B000849
:100B2000A10B0008A10B0008A10B0008A10B0008F5
:100B3000A10B0008A10B0008950B0008A10B0008F1
:100B4000A10B0008A10B0008A10B0008A10B0008D5
:100B5000A10B0008A10B0008890B0008A10B0008DD
:100B6000A10B0008A10B0008A10B0008A10B0008B5
:100B7000A10B0008A10B00087D0B00083B69062BA8
:100B800013D90123FB7510E03B69072B0FD9012313
:100B9000FB750CE03B690F2B0BD90123FB7508E0BB
:100BA0000123FB7506E000BF04E000BF02E000BFC8
:100BB00000E000BFFB7D002B0DD1FB681B68BA680D
:100BC0005A61FB681B689B6823F01801FB681B686F
:100BD0007A680A439A60FB7D18461C37BD465DF86B
:100BE000047B704780B483B000AF78607B6893F873
:100BF0003530DBB2022B04D07B6880225A6501239A
:100C00000CE07B68052283F835207B681B681A6836
:100C10007B681B6822F001021A60002318460C371B
:100C2000BD465DF8047B704780B582B000AF786048
:100C30007B68002B01D1012349E07B6893F8513098
:100C4000DBB2002B06D17B68002283F85020786845
:100C500008F0B2FF7B68022283F851207B681B6892
:100C60001B6823F440317B685A687B681B680A4321
:100C70001A607B681B685B6B23F007017B689A68CE
:100C80007B681B680A435A637B681B681A6C124BAB
:100C900013407A68D1687A6812680B4313647B68E2
:100CA0001B685B6B23F440117B681B691A057B682A
:100CB0005B695B051A437B681B680A435A637B6860
:100CC00000225A657B68012283F8512000231846D0
:100CD0000837BD4680BD00BF00C0FFFF80B582B0B1
:100CE00000AF78607B68002B01D101235FE0324BBD
:100CF0001B6B03F40003002B2ED07B681B681B6862
:100D000003F00103012B07D1786800F0C1F8034616
:100D1000002B21D001234AE07B681B685B6A03F04B
:100D20002003202B08D10021786800F0F7F8034653
:100D3000002B11D001233AE07B681B68DB6903F0CC
:100D40002003202B08D10121786800F0E7F8034642
:100D5000002B01D001232AE07B681B6800221A6067
:100D60007B681B683F229A607B681B6800221A61BF
:100D70007B681B6800229A617B681B680022DA612D
:100D80007B681B6800225A627B681B6800225A63DA
:100D9000786808F031FF7B6800225A657B68002282
:100DA00083F851207B68002283F8502000231846E6
:100DB0000837BD4680BD00BF0038024080B586B010
:100DC00002AFF860B9607A603B60FB6893F850301E
:100DD000012B01D1022320E0FB68012283F850207F
:100DE000FB68022283F85120BB6900933B687A6854
:100DF000B968F86800F090FAFB681B681A68FB682D
:100E00001B6842F40C521A60FB681B681A68FB6886
:100E10001B6842F001021A60002318461037BD46D5
:100E200080BD80B586B002AFF860B9607A603B6083
:100E3000FB6893F85030012B01D1022324E0FB68BA
:100E4000012283F85020FB68022283F85120FB68BE
:100E50001B687A685A61FB690093BB693A68B96894
:100E6000F86800F059FAFB681B681A68FB681B6891
:100E700042F40C521A60FB681B681A68FB681B6816
:100E800042F001021A60002318461037BD4680BDAB
:100E900080B584B000AF78607B681B681B6823F066
:100EA00005027B681B6842F004021A60FFF7F8FB3A
:100EB000F86017E0FFF7F4FB0246FB68D31AB3F5BE
:100EC0007A7F0FD97B685B6D43F020027B685A659F
:100ED0007B68032283F851207B68002283F850202E
:100EE000032317E07B681B681B6803F00103002BDA
:100EF000E0D17B681B681A687B681B6822F40C527F
:100F00001A607B68012283F851207B68002283F8F5
:100F10005020002318461037BD4680BD80B584B0F0
:100F200000AF786039607B681B682433FB607B68A6
:100F30001B681A687B681B6842F004021A603B68F1
:100F4000012B03D17B681B681C33FB60FFF7A8FBF8
:100F5000B86017E0FFF7A4FB0246BB68D31AB3F5ED
:100F60007A7F0FD97B685B6D43F020027B685A65FE
:100F70007B68032283F851207B68002283F850208D
:100F8000032316E0FB681B6803F02003002BE1D16C
:100F90007B681B681A687B681B6822F464521A60BD
:100FA0007B68012283F851207B68002283F850205F
:100FB000002318461037BD4680BD80B584B000AF11
:100FC00078607B681B685B68FB607B681B681B68DC
:100FD000BB60FB6803F00103002B26D0BB6803F461
:100FE0008073002B21D07B681B681A687B681B68A4
:100FF00022F480721A607B685B6D43F001027B68AB
:101000005A657B681B6801229A607B68042283F81A
:1010100051207B68002283F850207B68DB69002B1D
:1010200003D07B68DB6978689847FB6803F020038E
:10103000002B26D0BB6803F40053002B21D07B6823
:101040001B681A687B681B6822F400521A607B6870
:101050001B6820229A607B685B6D43F002027B680C
:101060005A657B68042283F851207B68002283F84C
:1010700050207B68DB69002B03D07B68DB697868D4
:101080009847FB6803F00803002B26D0BB6803F4E5
:101090000063002B21D07B681B681A687B681B6883
:1010A00022F400621A607B681B6808229A607B68E1
:1010B0005B6D43F004027B685A657B68042283F809
:1010C00051207B68002283F850207B68DB69002B6D
:1010D00003D07B68DB6978689847FB6803F00403FA
:1010E000002B13D0BB6803F48063002B0ED07B6809
:1010F0001B681A687B681B6822F480621A607B6830
:101100001B6804229A60786800F053F8FB6803F0CB
:101110000203002B24D0BB6803F40073002B1FD004
:101120007B681B681A687B681B6822F400721A606F
:101130007B681B6802229A607B685A6D7B685A65DF
:101140007B68012283F851207B68002283F85020BD
:101150007B689B69002B03D07B689B697868984704
:10116000FB6803F01003002B1FD0BB6803F480530F
:10117000002B1AD07B681B681A687B681B6822F4F6
:1011800080521A607B681B6810229A607B685A6DD7
:101190007B685A657B68012283F851207B680022B6
:1011A00083F85020786800F00EF800BF1037BD4675
:1011B00080BD80B483B000AF786000BF0C37BD46FF
:1011C0005DF8047B704780B483B000AF786000BFE7
:1011D0000C37BD465DF8047B7047000080B487B0D3
:1011E00000AF786039607B685B68B3F5403F7B682F
:1011F00093F85030012B01D1022384E07B68012257
:1012000083F850207B68022283F851203A68134605
:101210005B001344DB0020337A6813443B613B6975
:101220005A683B699B681B041A433B691B691B0591
:101230001A433B695B695B0513437B61354BFB607C
:101240003B695B680A2B03D03B695B68092B07D1BC
:101250003B69DB6803F07F437A6913437B6105E0F8
:101260003B69DB681B067A6913437B613B68002B93
:1012700020D17B681B685A6AFB68DB4302EA0301E2
:101280007B681B687A690A435A627B681B683A6903
:1012900012689A613B695B680A2B03D03B695B6803
:1012A000092B27D13B69DA687B681B6822F07F42F3
:1012B0009A621FE07B681B68DA69FB68DB4302EA1D
:1012C00003017B681B687A690A43DA617B681B68E3
:1012D0003A6912681A613B695B680A2B03D03B6963
:1012E0005B68092B06D13B69DA687B681B6822F0D2
:1012F0007F421A627B68012283F851207B680022BA
:1013000083F85020002318461C37BD465DF8047B47
:10131000704700BF0F0033FF80B48BB000AFF860A0
:10132000B9607A603B60FB681B685B6C03F040410E
:101330003B681A043B6B1A43FB681B680A435A64F8
:10134000FB681B687A68DA63FB685B68B3F5403F4B
:1013500074D1BB6803F07F433B62BB6803F47F0337
:10136000FB61BB6803F47F43BB61BB68DBB27B619D
:10137000FB689B68002B08D1BA69FB691A433B6A7A
:1013800013437A6913437B6253E0FB689B68012B2C
:1013900006D1BA69FB6913437A6913437B6248E05B
:1013A000FB689B68022B11D1FB69DB0CFB61BB69FD
:1013B0009B0ABB617B69DB087B61BB695A01FB69E6
:1013C000DB0213437A6913437B6232E0FB689B685C
:1013D000032B17D13B6ADB0F3B62FB69DB0CFB6124
:1013E000BB69DB0ABB617B69DB087B61BB695A01B6
:1013F000FB699B021A433B6ADB0313437A6913437D
:101400007B6216E03B6A1B0F3B62FB691B0DFB61B5
:10141000BB691B0BBB617B691B097B61BB691A0143
:10142000FB691B021A433B6A1B0313437A6913438C
:101430007B62FB681B687A6A9A6303E0FB681B683F
:10144000BA68DA6000BF2C37BD465DF8047B704790
:1014500080B489B000AF786039600023FB6100235D
:101460007B6100233B610023BB610023FB6175E1CD
:101470000122FB6902FA03F37B613B681B687A690E
:1014800013403B613A697B699A4240F064813B6852
:101490005B68012B0BD03B685B68022B07D03B6875
:1014A0005B68112B03D03B685B68122B30D17B68E3
:1014B0009B68BB61FB695B00032202FA03F3DB4319
:1014C000BA691340BB613B68DA68FB695B0002FAEA
:1014D00003F3BA691343BB617B68BA699A607B689E
:1014E0005B68BB610122FB6902FA03F3DB43BA6963
:1014F0001340BB613B685B681B0903F00102FB6999
:1015000002FA03F3BA691343BB617B68BA695A6094
:101510007B68DB68BB61FB695B00032202FA03F3B3
:10152000DB43BA691340BB613B689A68FB695B00A7
:1015300002FA03F3BA691343BB617B68BA69DA60E4
:101540003B685B68022B03D03B685B68122B23D19E
:10155000FB69DA087B68083253F82230BB61FB690B
:1015600003F007039B000F2202FA03F3DB43BA697F
:101570001340BB613B681A69FB6903F007039B00DA
:1015800002FA03F3BA691343BB61FB69DA087B68AB
:101590000832B96943F822107B681B68BB61FB699C
:1015A0005B00032202FA03F3DB43BA691340BB6119
:1015B0003B685B6803F00302FB695B0002FA03F31C
:1015C000BA691343BB617B68BA691A603B685B68A0
:1015D00003F08053002B00F0BE80654B5B6C644AC7
:1015E00043F480435364624B5B6C03F48043FB60C1
:1015F000FB68604AFB699B08023352F82330BB61E9
:10160000FB6903F003039B000F2202FA03F3DB43A1
:10161000BA691340BB617B68574A934237D07B68F5
:10162000564A934231D07B68554A93422BD07B680F
:10163000544A934225D07B68534A93421FD07B681B
:10164000524A934219D07B68514A934213D07B6827
:10165000504A93420DD07B684F4A934207D07B6833
:101660004E4A934201D1092312E00A2310E00823D5
:101670000EE007230CE006230AE0052308E004231C
:1016800006E0032304E0022302E0012300E000233C
:10169000FA6902F0030292009340BA691343BB61F6
:1016A0003449FB699B080233BA6941F823203C4B5B
:1016B0001B68BB613B69DB43BA691340BB613B6894
:1016C0005B6803F48033002B03D0BA693B69134392
:1016D000BB61334ABB691360314B5B68BB613B69DB
:1016E000DB43BA691340BB613B685B6803F40033BA
:1016F000002B03D0BA693B691343BB61284ABB691D
:101700005360274B9B68BB613B69DB43BA6913405D
:10171000BB613B685B6803F48013002B03D0BA699C
:101720003B691343BB611E4ABB6993601C4BDB687A
:10173000BB613B69DB43BA691340BB613B685B68D3
:1017400003F40013002B03D0BA693B691343BB6158
:10175000134ABB69D360FB690133FB61FB690F2B43
:101760007FF686AE00BF2437BD465DF8047B704728
:1017700000380240003801400000024000040240EE
:1017800000080240000C0240001002400014024019
:1017900000180240001C02400020024000240240C9
:1017A000003C014080B483B000AF78600B467B8082
:1017B00013467B707B78002B03D07A887B689A6114
:1017C00003E07B881A047B689A6100BF0C37BD4632
:1017D0005DF8047B704780B483B000AF78600B463F
:1017E0007B807B685A697B881340002B04D07B8800
:1017F0001A047B689A6102E07A887B689A6100BF6C
:101800000C37BD465DF8047B704780B586B000AFED
:1018100078607B681B683B613B69FB607B681B6889
:10182000184604F027FD0346012B40F0EF807B684B
:101830001B68184604F00BFD0346002B00F0E58002
:101840007B681B68184604F002FD034603F400138E
:10185000B3F5001F04D17B681B684FF400125A6176
:101860007B681B68184604F0F2FC034603F48013FF
:10187000B3F5801F04D17B681B684FF480125A6156
:101880007B681B68184604F0E2FC034603F08063A3
:10189000B3F1806F04D17B681B684FF080625A619E
:1018A0007B681B68184604F0D2FC034603F0020371
:1018B000022B03D17B681B6802225A617B681B687C
:1018C000184604F0C4FC034603F00053B3F1005F74
:1018D00015D17B681B684FF000525A61FB6803F515
:1018E00088631B6803F00103002B08D1786808F0B7
:1018F00083FC7B681B680121184604F0C9FC7B68E7
:101900001B68184604F0A3FC034603F08073B3F190
:10191000807F02D1786801F0EFF87B681B68184679
:1019200004F095FC034603F00803082B06D1786801
:1019300008F046FC7B681B6808225A617B681B68BC
:10194000184604F084FC034603F00073B3F1007FF3
:1019500038D17B681B68184604F0D4FCB8600023BB
:101960007B6125E07B6903F00F03BA6822FA03F379
:1019700003F00103002B18D07B695A01FB68134464
:1019800003F5A0631B6803F40043B3F5004F06D1D1
:101990007B69DBB21946786800F058F805E07B698E
:1019A000DBB21946786800F086FC7B6901337B6105
:1019B0007B689B687A699A42D4D37B681B684FF036
:1019C00000725A617B681B68184604F040FC0346AD
:1019D00003F01003102B01D1012300E00023002BA2
:1019E00014D07B681B689A697B681B6822F0100220
:1019F0009A61786800F0D4FF7B681B689A697B68FD
:101A00001B6842F010029A6100E000BF1837BD4623
:101A100080BD80B582B000AF78607B6893F8B83243
:101A2000012B01D102230DE07B68012283F8B8224B
:101A30007B681B68184604F075FD7B68002283F8FC
:101A4000B822002318460837BD4680BD80B586B051
:101A500000AF78600B46FB707B681B687B617B691D
:101A60003B61FB78FB60FB685A013B69134403F55B
:101A7000A0639B6803F00403042B19D1FB685A018F
:101A80003B69134403F5A0631A4604239360FB6883
:101A90005A013B69134403F5A063DB68FA685101FE
:101AA0003A690A4402F5A06243F00203D360CEE033
:101AB000FB685A013B69134403F5A0639B6803F478
:101AC0008073B3F5807F2CD1FB685A013B691344C6
:101AD00003F5A0631A464FF4807393607968FA683F
:101AE00013469B001344DB000B445D3307221A703E
:101AF000FB685A013B69134403F5A063DB68FA688D
:101B000051013A690A4402F5A06243F00203D3602E
:101B10007B681B68FA68D2B21146184604F003FCD1
:101B200095E0FB685A013B69134403F5A0639B6889
:101B300003F02003202B09D1FB685A013B691344B1
:101B400003F5A0631A462023936080E0FB685A01E6
:101B50003B69134403F5A0639B6803F00803082B5B
:101B600034D1FB685A013B69134403F5A063DB6879
:101B7000FA6851013A690A4402F5A06243F002038F
:101B8000D3607968FA6813469B001344DB000B446A
:101B90005D3305221A70FB685A013B69134403F553
:101BA000A0631A4610239360FB685A013B691344F3
:101BB00003F5A0631A46082393607B681B68FA68E4
:101BC000D2B21146184604F0AEFB40E0FB685A0161
:101BD0003B69134403F5A0639B6803F48063B3F58A
:101BE000806F34D1FB685A013B69134403F5A0634D
:101BF000DB68FA6851013A690A4402F5A06243F0D1
:101C00000203D3607B681B68FA68D2B2114618469B
:101C100004F089FBFB685A013B69134403F5A06398
:101C20001A46102393607968FA6813469B001344A0
:101C3000DB000B445D3308221A70FB685A013B69D4
:101C4000134403F5A0631A464FF480639360FB6866
:101C50005A013B69134403F5A0639B6803F40073C6
:101C6000B3F5007F22D1FB685A013B69134403F5A9
:101C7000A063DB68FA6851013A690A4402F5A06280
:101C800043F00203D3607B681B68FA68D2B2114646
:101C9000184604F048FBFB685A013B69134403F5FE
:101CA000A0631A464FF40073936000E3FB685A0187
:101CB0003B69134403F5A0639B6803F00103012B08
:101CC00040F0FD807B681B69002B1BD07968FA68A7
:101CD00013469B001344DB000B4448331A68FB682F
:101CE00059013B690B4403F5A0631B69C3F312035D
:101CF000D11A7868FA6813469B001344DB0003444A
:101D00004C3319607968FA6813469B001344DB0072
:101D10000B445D3301221A707968FA6813469B0000
:101D20001344DB000B44583300221A60FB685A014D
:101D30003B69134403F5A0631A4601239360796855
:101D4000FA6813469B001344DB000B443F331B78B7
:101D5000002B0AD07968FA6813469B001344DB0015
:101D60000B443F331B78022B21D1FB685A013B699E
:101D7000134403F5A063DB68FA6851013A690A4429
:101D800002F5A06243F00203D3607B681B68FA6827
:101D9000D2B21146184604F0C6FAFB685A013B69F4
:101DA000134403F5A0631A461023936070E079682A
:101DB000FA6813469B001344DB000B443F331B7847
:101DC000032B2AD1FB685A013B69134403F5A06336
:101DD0001B68FA6851013A690A4402F5A06243F0AF
:101DE000005313607968FA6813469B001344DB00C4
:101DF0000B445C3301221A70FB68D8B27968FA6828
:101E000013469B001344DB000B445C331B781A46DB
:101E10000146786808F0FEF93AE07968FA681346F6
:101E20009B001344DB000B443F331B78012B2FD165
:101E30007968FA6813469B001344DB000B445C335B
:101E400001221A707968FA6813469B001344DB007C
:101E50000B4450331B7883F00103D8B27968FA68D9
:101E600013469B001344DB000B44503302461A70A8
:101E7000FB68D8B27968FA6813469B001344DB000C
:101E80000B445C331B781A460146786808F0C2F9A7
:101E90007968FA6813469B001344DB000B44503307
:101EA0001B7883F00103D8B27968FA6813469B0067
:101EB0001344DB000B44503302461A70F7E1FB6811
:101EC0005A013B69134403F5A0639B6803F00203C6
:101ED000022B40F01A81FB685A013B69134403F559
:101EE000A063DB68FA6851013A690A4402F5A0620E
:101EF00023F00203D3607968FA6813469B00134409
:101F0000DB000B445D331B78012B0AD17968FA683A
:101F100013469B001344DB000B445C3301221A7010
:101F2000D9E07968FA6813469B001344DB000B4440
:101F30005D331B78052B0AD17968FA6813469B003C
:101F40001344DB000B445C3305221A70C3E079684C
:101F5000FA6813469B001344DB000B445D331B7887
:101F6000062B0AD07968FA6813469B001344DB00FD
:101F70000B445D331B78082B56D17968FA681346F9
:101F80009B001344DB000B4458331B68591C7868D2
:101F9000FA6813469B001344DB000344583319606E
:101FA0007968FA6813469B001344DB000B445833EE
:101FB0001B68032B14D97968FA6813469B001344F5
:101FC000DB000B44583300221A607968FA68134624
:101FD0009B001344DB000B445C3304221A7009E0BD
:101FE0007968FA6813469B001344DB000B445C33AA
:101FF00002221A70FB685A013B69134403F5A0637F
:102000001B68BB60BB6823F08043BB60BB6843F0C8
:102010000043BB60FB685A013B69134403F5A063AE
:102020001A46BB68136056E07968FA6813469B004D
:102030001344DB000B445D331B78032B23D17968F9
:10204000FA6813469B001344DB000B445C33022206
:102050001A70FB685A013B69134403F5A0631B68BF
:10206000BB60BB6823F08043BB60BB6843F00043A8
:10207000BB60FB685A013B69134403F5A0631A4631
:10208000BB68136027E07968FA6813469B00134425
:10209000DB000B445D331B78072B1CD17968FA6891
:1020A00013469B001344DB000B4458331B68591C38
:1020B0007868FA6813469B001344DB0003445833E6
:1020C00019607968FA6813469B001344DB000B44DF
:1020D0005C3304221A70FB685A013B69134403F510
:1020E000A0631A4602239360FB68D8B27968FA6845
:1020F00013469B001344DB000B445C331B781A46E9
:102100000146786808F086F8D1E0FB685A013B691F
:10211000134403F5A0639B6803F08003802B3ED13A
:10212000FB685A013B69134403F5A063DB68FA6856
:1021300051013A690A4402F5A06243F00203D360F8
:102140007968FA6813469B001344DB000B4458334C
:102150001B68591C7868FA6813469B001344DB001F
:102160000344583319607968FA6813469B00134496
:10217000DB000B445D3306221A707B681B68FA682B
:10218000D2B21146184604F0CEF8FB685A013B69FA
:10219000134403F5A0631A468023936087E0FB682D
:1021A0005A013B69134403F5A0639B6803F01003D5
:1021B000102B7CD17968FA6813469B001344DB002E
:1021C0000B443F331B78032B22D17968FA681346FE
:1021D0009B001344DB000B44583300221A60FB6859
:1021E0005A013B69134403F5A063DB68FA685101A7
:1021F0003A690A4402F5A06243F00203D3607B68A7
:102200001B68FA68D2B21146184604F08CF845E013
:102210007968FA6813469B001344DB000B443F3394
:102220001B78002B0AD07968FA6813469B00134488
:10223000DB000B443F331B78022B2FD17968FA68FF
:1022400013469B001344DB000B44583300221A60F2
:102250007B681B69002B21D17968FA6813469B00C3
:102260001344DB000B445D3303221A70FB685A01F0
:102270003B69134403F5A063DB68FA6851013A69CE
:102280000A4402F5A06243F00203D3607B681B6836
:10229000FA68D2B21146184604F045F8FB685A01B4
:1022A0003B69134403F5A0631A461023936000BFF3
:1022B0001837BD4680BD80B586B000AF78600B464C
:1022C000FB707B681B687B617B693B61FB78FB6013
:1022D000FB685A013B69134403F5A0639B6803F054
:1022E0000403042B19D1FB685A013B69134403F51D
:1022F000A0631A4604239360FB685A013B691344A8
:1023000003F5A063DB68FA6851013A690A4402F5F3
:10231000A06243F00203D3603EE3FB685A013B69CD
:10232000134403F5A0639B6803F02003202B41D1E5
:10233000FB685A013B69134403F5A0631A46202346
:1023400093607968FA6813469B001344DB000B44E2
:102350003D331B78012B40F01F837968FA681346E0
:102360009B001344DB000B443D3300221A70796854
:10237000FA6813469B001344DB000B445C330222D3
:102380001A70FB685A013B69134403F5A063DB68CC
:10239000FA6851013A690A4402F5A06243F0020367
:1023A000D3607B681B68FA68D2B21146184603F006
:1023B000BAFFF1E2FB685A013B69134403F5A063DD
:1023C0009B6803F04003402B3FD17968FA681346BD
:1023D0009B001344DB000B445D3304221A707968C0
:1023E000FA6813469B001344DB000B443D33012283
:1023F0001A707968FA6813469B001344DB000B449B
:10240000583300221A60FB685A013B69134403F5F4
:10241000A063DB68FA6851013A690A4402F5A062D8
:1024200043F00203D3607B681B68FA68D2B211469E
:10243000184603F078FFFB685A013B69134403F523
:10244000A0631A4640239360A6E2FB685A013B69E9
:10245000134403F5A0639B6803F40073B3F5007F96
:1024600022D1FB685A013B69134403F5A063DB6882
:10247000FA6851013A690A4402F5A06243F0020386
:10248000D3607B681B68FA68D2B21146184603F025
:102490004AFFFB685A013B69134403F5A0631A46DF
:1024A0004FF40073936077E2FB685A013B69134471
:1024B00003F5A0639B6803F00103012B35D1796814
:1024C000FA6813469B001344DB000B445833002288
:1024D0001A60FB685A013B69134403F5A063DB688B
:1024E000FA6851013A690A4402F5A06243F0020316
:1024F000D3607B681B68FA68D2B21146184603F0B5
:1025000012FFFB685A013B69134403F5A0631A46A6
:10251000012393607968FA6813469B001344DB003B
:102520000B445D3301221A7036E2FB685A013B69A5
:10253000134403F5A0639B6803F00803082B2BD119
:10254000FB685A013B69134403F5A0631A4608234C
:102550009360FB685A013B69134403F5A063DB6891
:10256000FA6851013A690A4402F5A06243F0020395
:10257000D3607B681B68FA68D2B21146184603F034
:10258000D2FE7968FA6813469B001344DB000B44C3
:102590005D3305221A70FFE1FB685A013B69134461
:1025A00003F5A0639B6803F01003102B55D17968E5
:1025B000FA6813469B001344DB000B445833002297
:1025C0001A607968FA6813469B001344DB000B44D9
:1025D0005D3303221A707968FA6813469B0013442E
:1025E000DB000B443D331B78002B14D17968FA686B
:1025F00013469B001344DB000B443C331B78002B39
:1026000009D17968FA6813469B001344DB000B4438
:102610003D3301221A70FB685A013B69134403F5EC
:10262000A063DB68FA6851013A690A4402F5A062C6
:1026300043F00203D3607B681B68FA68D2B211468C
:10264000184603F070FEFB685A013B69134403F51A
:10265000A0631A46102393609EE1FB685A013B6910
:10266000134403F5A0639B6803F08003802B2BD1F8
:10267000FB685A013B69134403F5A063DB68FA6801
:1026800051013A690A4402F5A06243F00203D360A3
:102690007B681B68FA68D2B21146184603F043FE05
:1026A0007968FA6813469B001344DB000B445D33E2
:1026B00006221A70FB685A013B69134403F5A063B4
:1026C0001A468023936067E1FB685A013B69134413
:1026D00003F5A0639B6803F48063B3F5806F35D185
:1026E000FB685A013B69134403F5A063DB68FA6891
:1026F00051013A690A4402F5A06243F00203D36033
:102700007B681B68FA68D2B21146184603F00BFECC
:10271000FB685A013B69134403F5A0631A46102372
:102720009360FB685A013B69134403F5A0631A46A2
:102730004FF4806393607968FA6813469B001344F2
:10274000DB000B445D3308221A7025E1FB685A0157
:102750003B69134403F5A0639B6803F00203022B5B
:1027600040F01A81FB685A013B69134403F5A063EA
:10277000DB68FA6851013A690A4402F5A06223F065
:102780000203D3607968FA6813469B001344DB00A8
:102790000B445D331B78012B37D17968FA681346F7
:1027A0009B001344DB000B445C3301221A707968F0
:1027B000FA6813469B001344DB000B443F331B783D
:1027C000022B0BD07968FA6813469B001344DB0098
:1027D0000B443F331B78032B40F0C5807968FA68BF
:1027E00013469B001344DB000B4451331B7883F0EA
:1027F0000103D8B27968FA6813469B001344DB00E2
:102800000B44513302461A70ADE07968FA681346FA
:102810009B001344DB000B445D331B78032B0AD170
:102820007968FA6813469B001344DB000B445C3361
:1028300002221A7097E07968FA6813469B001344E5
:10284000DB000B445D331B78042B0AD17968FA68EE
:1028500013469B001344DB000B445C3302221A70C6
:1028600081E07968FA6813469B001344DB000B444F
:102870005D331B78052B0AD17968FA6813469B00F3
:102880001344DB000B445C3305221A706BE079685B
:10289000FA6813469B001344DB000B445D331B783E
:1028A000062B0AD07968FA6813469B001344DB00B4
:1028B0000B445D331B78082B55D17968FA681346B1
:1028C0009B001344DB000B4458331B68591C786889
:1028D000FA6813469B001344DB0003445833196025
:1028E0007968FA6813469B001344DB000B445833A5
:1028F0001B68032B14D97968FA6813469B001344AC
:10290000DB000B44583300221A607968FA681346DA
:102910009B001344DB000B445C3304221A7009E073
:102920007968FA6813469B001344DB000B445C3360
:1029300002221A70FB685A013B69134403F5A06335
:102940001B68BB60BB6823F08043BB60BB6843F07F
:102950000043BB60FB685A013B69134403F5A06365
:102960001A46BB681360FB685A013B69134403F5C0
:10297000A0631A4602239360FB68D8B27968FA68AC
:1029800013469B001344DB000B445C331B781A4650
:102990000146786807F03EFC00BF1837BD4680BD91
:1029A00080B58AB000AF78607B681B687B627B6A09
:1029B0003B627B681B681B6AFB61FB6903F00F03CA
:1029C000BB61FB695B0C03F00F037B61FB691B09B7
:1029D000C3F30A033B617B69022B03D0052B00F094
:1029E000828083E03B69002B7FD07968BA69134607
:1029F0009B001344DB000B4444331B68002B74D052
:102A00007B6818687968BA6913469B001344DB0039
:102A10000B4444331B683A6992B2194603F0EEFB4B
:102A20007968BA6913469B001344DB000B444433B6
:102A30001A683B69D1187868BA6913469B00134439
:102A4000DB000344443319607968BA6913469B007C
:102A50001344DB000B444C331A683B69D118786887
:102A6000BA6913469B001344DB0003444C331960DE
:102A7000BB695A013B6A134403F5A0631A691D4BF5
:102A80001340002B31D0BB695A013B6A134403F554
:102A9000A0631B68FB60FB6823F08043FB60FB685E
:102AA00043F00043FB60BB695A013B6A134403F5E2
:102AB000A0631A46FB6813607968BA6913469B00E5
:102AC0001344DB000B4450331B7883F00103D8B26E
:102AD0007968BA6913469B001344DB000B445033FA
:102AE00002461A7001E000BF00E000BF00BF2837B7
:102AF000BD4680BD0000F81F80B586B000AF78608D
:102B00007B681B687B617B693B613B6903F588637C
:102B10001B68FB603B6903F588631B68BB60BB688F
:102B200023F02E03BB60FB6803F00203022B0BD1E2
:102B3000FB6803F00103012B02D1786807F04EFB1C
:102B4000BB6843F00203BB60FB6803F00803082B7B
:102B500032D1BB6843F00803BB60FB6803F0040399
:102B6000042B26D17B689B69022B13D1FB6803F4ED
:102B7000C023B3F5802F06D17B681B68022118465D
:102B800003F086FB11E07B681B680121184603F007
:102B90007FFB0AE07B68DB68012B06D13B6903F50C
:102BA00080631A464EF660235360786807F040FB56
:102BB00002E0786807F04AFBFB6803F02003202B53
:102BC00003D1BB6843F02003BB603B6903F5886316
:102BD0001A46BB68136000BF1837BD4680BD0000B1
:102BE00080B582B000AF78607B68002B01D10123F3
:102BF0007FE07B6893F84130DBB2002B06D17B6825
:102C0000002283F84020786807F010F87B682422BF
:102C100083F841207B681B681A687B681B6822F078
:102C200001021A607B685A687B681B6822F0706238
:102C30001A617B681B689A687B681B6822F40042F3
:102C40009A607B68DB68012B07D17B689A687B6898
:102C50001B6842F400429A6006E07B689A687B68D1
:102C60001B6842F404429A607B68DB68022B04D143
:102C70007B681B684FF400625A607B681B68596868
:102C80007B681A681D4B0B4353607B681B68DA68CE
:102C90007B681B6822F40042DA607B681A697B68F3
:102CA0005B6942EA03017B689B691A027B681B68C7
:102CB0000A43DA607B68D9697B681A6A7B681B689B
:102CC0000A431A607B681B681A687B681B6842F0BD
:102CD00001021A607B6800225A647B68202283F814
:102CE00041207B6800221A637B68002283F842201F
:102CF000002318460837BD4680BD00BF0080000293
:102D000080B588B002AFF860084611461A460346FF
:102D10007B810B463B811346FB80FB6893F8413077
:102D2000DBB2202B40F0F9803B6A002B02D0BB8C39
:102D3000002B05D1FB684FF400725A640123EDE0CB
:102D4000FB6893F84030012B01D10223E6E0FB68D9
:102D5000012283F84020FDF7A3FC78617B69009392
:102D6000192301224FF40041F86800F0C3FA03462A
:102D7000002B01D00123D1E0FB68212283F8412000
:102D8000FB68402283F84220FB6800225A64FB68FB
:102D90003A6A5A62FB68BA8C5A85FB6800225A6309
:102DA000F8883A8979897B690193BB6A0093034665
:102DB000F86800F0D3F90346002B05D0FB68002229
:102DC00083F840200123A9E0FB685B8D9BB2FF2BB9
:102DD0000ED9FB68FF221A85FB681B8DDAB2798950
:102DE000002300934FF08073F86800F0A5FB0FE01C
:102DF000FB685B8D9AB2FB681A85FB681B8DDAB2A3
:102E00007989002300934FF00073F86800F094FB79
:102E10007A69B96AF86800F0ADFA0346002B01D070
:102E200001237BE0FB685B6A1A78FB681B689A6287
:102E3000FB685B6A5A1CFB685A62FB685B8D9BB23D
:102E4000013B9AB2FB685A85FB681B8D013B9AB225
:102E5000FB681A85FB685B8D9BB2002B34D0FB6846
:102E60001B8D002B30D17B690093BB6A002280212F
:102E7000F86800F03FFA0346002B01D001234DE033
:102E8000FB685B8D9BB2FF2B0ED9FB68FF221A8576
:102E9000FB681B8DDAB27989002300934FF08073B1
:102EA000F86800F049FB0FE0FB685B8D9AB2FB68A5
:102EB0001A85FB681B8DDAB27989002300934FF0E5
:102EC0000073F86800F038FBFB685B8D9BB2002B49
:102ED0009ED17A69B96AF86800F08CFA0346002B33
:102EE00001D001231AE0FB681B682022DA61FB682D
:102EF0001B685968FB681A680A4B0B405360FB68F3
:102F0000202283F84120FB68002283F84220FB68DE
:102F1000002283F84020002300E0022318461837DF
:102F2000BD4680BD00E800FE80B588B002AFF86005
:102F3000084611461A4603467B810B463B811346E1
:102F4000FB80FB6893F84130DBB2202B40F0FD8022
:102F50003B6A002B02D0BB8C002B05D1FB684FF4E1
:102F600000725A640123F1E0FB6893F84030012BB2
:102F700001D10223EAE0FB68012283F84020FDF73B
:102F80008FFB78617B690093192301224FF4004184
:102F9000F86800F0AFF90346002B01D00123D5E01B
:102FA000FB68222283F84120FB68402283F84220FC
:102FB000FB6800225A64FB683A6A5A62FB68BA8C62
:102FC0005A85FB6800225A63F8883A8979897B69B7
:102FD0000193BB6A00930346F86800F013F90346B7
:102FE000002B05D0FB68002283F840200123ADE0D0
:102FF000FB685B8D9BB2FF2B0ED9FB68FF221A8505
:10300000FB681B8DDAB27989524B00934FF08073C5
:10301000F86800F091FA0FE0FB685B8D9AB2FB68EC
:103020001A85FB681B8DDAB279894A4B00934FF001
:103030000073F86800F080FA7B690093BB6A002295
:103040000421F86800F056F90346002B01D0012353
:103050007CE0FB681B685A6AFB685B6AD2B21A7034
:10306000FB685B6A5A1CFB685A62FB681B8D013B5C
:103070009AB2FB681A85FB685B8D9BB2013B9AB2E2
:10308000FB685A85FB685B8D9BB2002B34D0FB68D4
:103090001B8D002B30D17B690093BB6A00228021FD
:1030A000F86800F027F90346002B01D001234DE01A
:1030B000FB685B8D9BB2FF2B0ED9FB68FF221A8544
:1030C000FB681B8DDAB27989002300934FF080737F
:1030D000F86800F031FA0FE0FB685B8D9AB2FB688C
:1030E0001A85FB681B8DDAB27989002300934FF0B3
:1030F0000073F86800F020FAFB685B8D9BB2002B30
:103100009AD17A69B96AF86800F074F90346002B1D
:1031100001D001231AE0FB681B682022DA61FB68FA
:103120001B685968FB681A680B4B0B405360FB68BF
:10313000202283F84120FB68002283F84220FB68AC
:10314000002283F84020002300E0022318461837AD
:10315000BD4680BD0024008000E800FE80B586B03A
:1031600002AFF860084611461A4603467B810B46BB
:103170003B811346FB80FB88DAB27989204B0093B0
:103180004FF08073F86800F0D7F9FA69B969F86808
:1031900000F0F0F80346002B01D001232CE0FB885F
:1031A000012B05D13B89DAB2FB681B689A6215E0F6
:1031B0003B891B0A9BB2DAB2FB681B689A62FA6908
:1031C000B969F86800F0D6F80346002B01D0012356
:1031D00012E03B89DAB2FB681B689A62FB690093D4
:1031E000BB6900228021F86800F084F80346002BB8
:1031F00001D0012300E0002318461037BD4680BDF2
:103200000020008080B586B002AFF8600846114605
:103210001A4603467B810B463B811346FB80FB88A5
:10322000DAB27989204B00930023F86800F084F922
:10323000FA69B969F86800F09DF80346002B01D0DF
:1032400001232CE0FB88012B05D13B89DAB2FB6816
:103250001B689A6215E03B891B0A9BB2DAB2FB68D5
:103260001B689A62FA69B969F86800F083F8034646
:10327000002B01D0012312E03B89DAB2FB681B6806
:103280009A62FB690093BB6900224021F86800F054
:1032900031F80346002B01D0012300E0002318463B
:1032A0001037BD4680BD00BF0020008080B483B0D1
:1032B00000AF78607B681B689B6903F00203022BF8
:1032C00003D17B681B6800229A627B681B689B693C
:1032D00003F00103012B07D07B681B689A697B68A8
:1032E0001B6842F001029A6100BF0C37BD465DF8D1
:1032F000047B704780B584B000AFF860B9603B6074
:103300001346FB7122E03B68B3F1FF3F1ED0FDF78F
:10331000C7F90246BB69D31A3A689A4202D33B689E
:10332000002B13D1FB685B6C43F02002FB685A64EE
:10333000FB68202283F84120FB68002283F84220AA
:10334000FB68002283F8402001230FE0FB681B6824
:103350009A69BB681340BA689A420CBF01230023E4
:10336000DBB21A46FB799A42CDD0002318461037BB
:10337000BD4680BD80B584B000AFF860B9607A60AA
:103380002CE07A68B968F86800F070F80346002B02
:1033900001D001232AE0BB68B3F1FF3F1ED0FDF747
:1033A0007FF902467B68D31ABA689A4202D3BB6897
:1033B000002B13D1FB685B6C43F02002FB685A645E
:1033C000FB68202283F84120FB68002283F842201A
:1033D000FB68002283F84020012307E0FB681B689C
:1033E0009B6903F00203022BCBD100231846103750
:1033F000BD4680BD80B584B000AFF860B9607A602A
:1034000028E07A68B968F86800F030F80346002BC5
:1034100001D0012326E0FDF743F902467B68D31A69
:10342000BA689A4202D3BB68002B13D1FB685B6C6D
:1034300043F02002FB685A64FB68202283F8412095
:10344000FB68002283F84220FB68002283F84020BA
:10345000012307E0FB681B689B6903F02003202B16
:10346000CFD1002318461037BD4680BD80B584B04B
:1034700000AFF860B9607A60FB681B689B6903F075
:103480001003102B51D122E0BB68B3F1FF3F1ED0D7
:10349000FDF706F902467B68D31ABA689A4202D34E
:1034A000BB68002B13D1FB685B6C43F02002FB6808
:1034B0005A64FB68202283F84120FB68002283F8CD
:1034C0004220FB68002283F8402001232EE0FB68A5
:1034D0001B689B6903F02003202BD5D1FB681B6878
:1034E0001022DA61FB681B682022DA61F868FFF7B6
:1034F000DDFEFB681B685968FB681A680D4B0B40C2
:103500005360FB685B6C43F00402FB685A64FB6821
:10351000202283F84120FB68002283F84220FB68C8
:10352000002283F84020012300E0002318461037D2
:10353000BD4680BD00E800FE80B485B000AFF860F5
:103540007B600B467B8113467B72FB681B685A6865
:10355000BB695B0D03F480610D4B0B43DB4302EA57
:1035600003017B89C3F309027B7A1B0403F47F0305
:103570001A437B681A43BB691A43FB681B680A43FA
:103580005A6000BF1437BD465DF8047B704700BF2A
:10359000FF63FF0380B483B000AF786039607B685D
:1035A00093F84130DBB2202B38D17B6893F8403060
:1035B000012B01D1022332E07B68012283F84020F5
:1035C0007B68242283F841207B681B681A687B682B
:1035D0001B6822F001021A607B681B681A687B680E
:1035E0001B6822F480521A607B681B6819687B682C
:1035F0001B683A680A431A607B681B681A687B6814
:103600001B6842F001021A607B68202283F8412087
:103610007B68002283F84020002300E00223184644
:103620000C37BD465DF8047B704780B485B000AFB1
:10363000786039607B6893F84130DBB2202B39D158
:103640007B6893F84030012B01D1022333E07B6883
:10365000012283F840207B68242283F841207B6884
:103660001B681A687B681B6822F001021A607B687D
:103670001B681B68FB60FB6823F47063FB603B689E
:103680001B02FA681343FB607B681B68FA681A60C8
:103690007B681B681A687B681B6842F001021A602D
:1036A0007B68202283F841207B68002283F8402039
:1036B000002300E0022318461437BD465DF8047B62
:1036C0007047000080B584B000AF78607B68002B45
:1036D00001D10123BFE07B6893F8A130DBB2002B5E
:1036E00006D17B68002283F8A020786806F0E2FA11
:1036F0007B68022283F8A1207B681B689A697B683B
:103700001B6822F070429A617B681B6899697B682C
:103710005A687B689B681A437B68DB681A437B683E
:103720001B691A437B681B680A439A617B681B68A4
:1037300099687B681A684A4B0B4093607B685B69A9
:103740001B04FB607B681B6899687B689A69FB684F
:103750001A437B681B680A439A607B681B68D968B8
:103760007B681A683E4B0B40D3607B68DB691B04A7
:10377000FB607B681B68D9687B681A6AFB681A4320
:103780007B681B680A43DA607B681B6819697B6881
:103790001A68334B0B4013617B685B6A1B04FB6048
:1037A0007B681B6819697B689A6AFB681A437B68A7
:1037B0001B680A431A617B681B6859697B681A6831
:1037C000274B0B4053617B68DB6A1B04FB607B6803
:1037D0001B6859697B681A6BFB681A437B681B6816
:1037E0000A435A617B6893F835301B02FB607B68A3
:1037F00093F836301B04BB607B681B68DA6A7B6811
:103800001B6802F07F42DA627B681B68D96ABA687B
:10381000FB6813437A6892F834201A437B681B686C
:103820000A43DA627B681B685A6B7B681B6842F04C
:1038300006025A637B681B689A697B681B6842F0C2
:1038400001029A617B680022C3F8A4207B680122F0
:1038500083F8A120002318461037BD4680BD00BF65
:1038600000F800F080B584B000AF78607B681B681A
:103870009B6BFB607B681B685B6BBB60FB6803F04A
:103880000403002B23D0BB6803F00403002B1ED0DD
:103890007B681B685A6B7B681B6822F004025A63C2
:1038A0007B681B680422DA637B68D3F8A43043F09A
:1038B00001027B68C3F8A4207B68042283F8A1205E
:1038C0007B68002283F8A020786800F06FF8FB681E
:1038D00003F00203002B23D0BB6803F00203002B8C
:1038E0001ED07B681B685A6B7B681B6822F0020243
:1038F0005A637B681B680222DA637B68D3F8A430C2
:1039000043F002027B68C3F8A4207B68042283F89A
:10391000A1207B68002283F8A020786800F046F898
:10392000FB6803F00103002B1BD0BB6803F001030D
:10393000002B16D07B681B685A6B7B681B6822F0D3
:1039400001025A637B681B680122DA637B680122EB
:1039500083F8A1207B68002283F8A020786805F016
:103960009FFAFB6803F00803002B1BD0BB6803F031
:103970000803002B16D07B681B685A6B7B681B689A
:1039800022F008025A637B681B680822DA637B68AE
:10399000012283F8A1207B68002283F8A0207868A8
:1039A00000F00EF800BF1037BD4680BD80B483B074
:1039B00000AF786000BF0C37BD465DF8047B7047F0
:1039C00080B483B000AF786000BF0C37BD465DF8AF
:1039D000047B7047B0B584B000AFF860B9607A601E
:1039E000FB6893F8A030012B01D102232CE0FB6887
:1039F000012283F8A020FB68022283F8A120FA6844
:103A00007B68342101FB03F3134403F13802BB68E4
:103A100014461D460FCD0FC40FCD0FC40FCD0FC4DC
:103A20002B6823607A68B968F86800F049F8FB6889
:103A30001B6801225A62FB68012283F8A120FB68FF
:103A4000002283F8A020002318461037BD46B0BDE1
:103A500080B483B000AF786039607B6893F8A030A1
:103A6000012B01D1022323E07B68012283F8A020EF
:103A70007B68022283F8A1207B681B685A6B7B68F5
:103A80001B6822F001025A630C4A3B6813647B688E
:103A90001B685A6B7B681B6842F001025A637B68A3
:103AA000012283F8A1207B68002283F8A020002354
:103AB00018460C37BD465DF8047B7047006801402E
:103AC00080B489B000AFF860B9607A60BB685A68AA
:103AD000FB681B68DB681B0CC3F30B0313441B045C
:103AE000FB61FB681B681A467B68DB011344843367
:103AF0005B68FA68126811467A68D2010A44843217
:103B000003F470435360BB681A68FB681B68DB688A
:103B10001B0CC3F30B0313445A1CFB681B681946A8
:103B20007B68DB010B4484331946FB6913434B600C
:103B3000BB68DA68FB681B68DB68C3F30A031344DD
:103B40001B04FB61FB681B681A467B68DB0113449E
:103B500084339B68FA68126811467A68D2010A4475
:103B6000843203F470439360BB689A68FB681B68F7
:103B7000DB68C3F30A0313445A1CFB681B6819462D
:103B80007B68DB010B4484331946FB6913438B606C
:103B9000FB681B681A467B68DB01134484331B698E
:103BA000FA68126811467A68D2010A44843223F016
:103BB00007031361FB681B681A467B68DB0113442B
:103BC00084331A46BB681B691361BB6893F83130B4
:103BD0001B02FB61BB6893F832301B04BB61BB68FE
:103BE0009B691B067B61FB681B681A467B68DB01CF
:103BF000134484339B69FB681B681A467B68DB01AE
:103C0000134484331A4600239361BB6893F8303021
:103C10001A46FB691A43BB691A43FB681B681946BD
:103C20007B68DB010B44843319467B6913438B614A
:103C3000FB681B681A467B68DB01134484335B69AD
:103C4000FA68126811467A68D2010A44843223F075
:103C5000FF035361FB681B681A467B68DB01134452
:103C600084331A46BB685B695361FB681B681A465C
:103C70007B68DB0113448433DA69FB681B681946EF
:103C80007B68DB010B4484331946584B1340CB61EE
:103C9000BB68DA69BB681B6AF96809680846796815
:103CA000C901014484311343CB61FB681B681A4688
:103CB0007B68DB01134484339B6AFB681B681A46EC
:103CC0007B68DB01134484331A4600239362FB684C
:103CD0001B681A467B68DB01134484331A46BB68B1
:103CE0005B6A9362BB681B69002B02D10423FB61F2
:103CF0001BE0BB681B69012B02D10323FB6114E0AD
:103D0000BB681B69042B0BD0BB681B69022B07D057
:103D1000BB681B69032B03D0BB681B69072B02D14F
:103D20000223FB6101E00123FB61FB681B681A466B
:103D30007B68DB0113448433DB6AFA68126811463E
:103D40007A68D2010A44843203F0E023D362BB686C
:103D50009B6AFA6902FB03F31A04BB685968BB68E3
:103D60001B68CB1AF96901FB03F30333F96809688F
:103D700008467968C901014484311343CB62FB686A
:103D80001B681A467B68DB01134484331A6BFB689B
:103D90001B6819467B68DB010B4484331946144BBE
:103DA00013400B63FB681B681A467B68DB011344F6
:103DB00084331A46BB68DB6A1363FB681B681A46C8
:103DC0007B68DB01134484331B68FA681268114670
:103DD0007A68D2010A44843243F00103136000BFC1
:103DE0002437BD465DF8047B704700BFF8F8FFFF3D
:103DF00000F8FFFF80B400AF054B1B68044A43F492
:103E00008073136000BFBD465DF8047B704700BF40
:103E10000070004080B582B000AF00237B60234B70
:103E20001B6C224A43F080531364204B1B6C03F03D
:103E300080533B603B681E4B1B681D4A43F4803334
:103E40001360FCF72DFC786009E0FCF729FC0246C2
:103E50007B68D31AB3F57A7F01D9032322E0144B90
:103E60005B6803F48033B3F5803FEED1104B1B68E1
:103E70000F4A43F400331360FCF712FC786009E04A
:103E8000FCF70EFC02467B68D31AB3F57A7F01D9A2
:103E9000032307E0064B5B6803F40033B3F5003FF0
:103EA000EED1002318460837BD4680BD00380240D9
:103EB0000070004080B586B002AF7860FCF7F0FB80
:103EC000F8607B68002B01D1012367E07B6893F8E1
:103ED0004130DBB2002B0BD17B68002283F84020FD
:103EE000786800F087F841F28831786800F006FDC4
:103EF0007B681B681B6823F4F8517B689B68013B57
:103F00001A027B681B680A431A607B689B6C0093EB
:103F1000FB6800222021786800F031FD0346FB7227
:103F2000FB7A002B35D17B681B681A681D4B134048
:103F30007A68526811067A68D26811437A68D26941
:103F400011437A68126A11437A6812680B4313604E
:103F50007B681B685A68144B13407A681269110415
:103F60007A68526911437A68926911437A681268D3
:103F70000B4353607B681B681A687B681B6842F0C0
:103F800001021A607B6800225A647B68012283F870
:103F900041207B68002283F84020FB7A18461037C6
:103FA000BD4680BD2FFFFF00FEF8E0FF80B582B068
:103FB00000AF78607B68002B01D1012316E07B689D
:103FC0001B681A687B681B6822F001021A60786817
:103FD00000F01AF87B6800225A647B68002283F89C
:103FE00041207B68002283F84020002318460837D0
:103FF000BD4680BD80B483B000AF786000BF0C3791
:10400000BD465DF8047B704780B483B000AF786034
:1040100000BF0C37BD465DF8047B704780B586B0A5
:1040200000AF78607B681B689B687B617B681B685E
:104030001B683B617B6903F00403002B64D03B6980
:1040400003F48023002B5FD07B681B682033FB6068
:104050007B6893F84130DBB2122B25D11CE07B68E2
:10406000DB6A002B0FD07B685B6A1A78FB681A70DA
:104070007B685B6A5A1C7B685A627B68DB6A5A1EE3
:104080007B68DA6208E07B681B681A687B681B68DB
:1040900022F480221A6033E07B681B689B6803F07F
:1040A0000403002BDBD12BE07B6893F84130DBB2BB
:1040B000222B25D11DE07B689B6B002B10D07B68E9
:1040C0001B6BFA681278D2B21A707B681B6B5A1C91
:1040D0007B681A637B689B6B5A1E7B689A6308E057
:1040E0007B681B681A687B681B6822F480221A6050
:1040F00006E07B681B689B6803F00403002BDAD1A1
:10410000786800F0DDFB3CE17B6903F00203002BE3
:1041100000F0B0803B6903F40033002B00F0AA806C
:104120007B681B680222DA607B681B681A687B6800
:104130001B6822F4E0221A607B6893F84130DBB2FE
:10414000122B20D17B681B681B6803F00403002B33
:1041500011D07B681B681A687B681B6822F0040218
:104160001A607B68DB6B1B681A687B68DB6B1B68FB
:1041700022F001021A607B68012283F841207868EE
:1041800000F094FBFAE07B6893F84130DBB2222B1D
:1041900043D17B681B681B6803F00403002B12D01B
:1041A0007B681B681A687B681B6822F004021A602F
:1041B0007B68DB6B1B681A687B68DB6B1B6822F013
:1041C00001021A6021E07B681B682033FB6013E06A
:1041D0007B689B6B002B17D07B681B6BFA6812788F
:1041E000D2B21A707B681B6B5A1C7B681A637B689F
:1041F0009B6B5A1E7B689A637B681B689B6803F401
:104200007C53002BE4D100E000BF7B68012283F8DF
:104210004120786800F040FBB0E07B6893F84130C3
:10422000DBB2022B07D17B68012283F8412078683A
:1042300000F028FBA2E07B6893F84130DBB2082B4A
:1042400040F09C807B681B685A697B681B6822F081
:1042500040625A617B68012283F841207B685B6C75
:10426000002B03D1786800F003FB87E0786800F04A
:10427000F5FA83E07B6903F00803002B1FD03B694C
:1042800003F40023002B1AD07B681B680822DA6035
:104290007B681B681B6803F48003002B0BD07B68D2
:1042A0001B681A687B681B6822F410221A607B68FE
:1042B000012283F84120786800F00CFB61E07B6903
:1042C00003F00103002B47D03B6903F48033002B3C
:1042D00042D07B681B680122DA607B681B681A6821
:1042E0007B681B6822F470221A607B685B6C43F069
:1042F00002027B685A647B681B681B6803F0040336
:10430000002B21D07B681B681A687B681B6822F031
:1043100004021A607B68DB6B1C4A1A657B68DB6BE6
:104320001846FCF75FFC0346002B29D07B685B6CCA
:1043300043F004027B685A647B68012283F84120C1
:10434000786800F08BFA1BE07B68012283F841203B
:10435000786800F083FA13E07B6903F01003002B08
:104360000FD03B6903F48013002B0AD07B681B68D5
:104370001022DA60786800F0B7FA02E000BF00E0CF
:1043800000BF00BF1837BD4680BD00BF19490008F7
:1043900080B588B002AFF860B9607A60FCF780F948
:1043A0003861FB6893F84030DBB2012B01D1022366
:1043B00048E0FB68012283F84020FB6893F8413015
:1043C000DBB2012B37D1FB6800225A64FB68022262
:1043D00083F841207B6800933B6900222021F86824
:1043E00000F0CDFA0346FB75FB7D002B25D10022A2
:1043F000B968F86800F0FAFABB685B6A002B15D15F
:104400007B6800933B6901220221F86800F0B7FA4B
:104410000346FB75FB7D002B0FD1FB681B68022256
:10442000DA60FB68012283F8412006E0FB68012284
:1044300083F8412001E00223FB75FB68002283F82A
:104440004020FB7D18461837BD4680BD80B58AB038
:1044500002AFF860B9607A600023FB77FCF720F9BF
:10446000B861FB681B6820337B61FB6893F84030C0
:10447000DBB2012B01D1022376E0FB68012283F835
:104480004020FB6893F84130DBB2012B65D1FB681B
:1044900000225A64BB68002B56D0FB68122283F8B6
:1044A0004120FB681B681B695A1CFB68DA62FB68C9
:1044B0001B681B695A1CFB689A62FB68BA685A62DF
:1044C000FB681B685A69FB681B6822F040625A61EE
:1044D0001BE07B680093BB6901220421F86800F0AF
:1044E0004EFA0346FB77FB7F002B13D1FB685B6A18
:1044F0001A787B691A70FB685B6A5A1CFB685A62FF
:10450000FB68DB6A5A1EFB68DA62FB68DB6A002B19
:10451000DFD100E000BFFB7F002B10D17B68009350
:10452000BB6901220221F86800F029FA0346FB77F3
:10453000FB7F002B03D1FB681B680222DA60FB685B
:10454000012283F841200AE0FB685B6C43F008021B
:10455000FB685A640123FB7701E00223FB77FB68C9
:10456000002283F84020FB7F18462037BD4680BDDF
:1045700080B58AB002AFF860B9607A600023FB773B
:10458000FCF78EF8B861FB681B689B697B61FB6870
:104590001B6820333B61FB6893F84030DBB2012B92
:1045A00001D102237DE0FB68012283F84020FB68F3
:1045B00093F84130DBB2012B6CD1FB6800225A64C6
:1045C000BB68002B5DD0FB68222283F84120FB688A
:1045D0001B681B695A1CFB689A63FB681B681B6994
:1045E0005A1CFB685A63FB68BA681A63FB681B684D
:1045F0005B6923F04062FB681B6842F080625A618D
:10460000FB681B687A699A611CE07B680093BB6950
:1046100001220621F86800F0B2F90346FB77FB7F20
:10462000002B14D1FB681B6B3A691278D2B21A7056
:10463000FB681B6B5A1CFB681A63FB689B6B5A1E5A
:10464000FB689A63FB689B6B002BDED100E000BF28
:10465000FB7F002B10D17B680093BB6901220221F4
:10466000F86800F08CF90346FB77FB7F002B03D141
:10467000FB681B680222DA60FB68012283F8412094
:104680000AE0FB685B6C43F00802FB685A64012394
:10469000FB7701E00223FB77FB68002283F84020D0
:1046A000FB7F18462037BD4680BD80B588B002AF7D
:1046B000F860B9607A603B60FBF7F2FF3861FB6835
:1046C00093F84030DBB2012B01D1022360E0FB689C
:1046D000012283F84020FB6893F84130DBB2012BC4
:1046E0004FD1FB6800225A64FB68422283F84120C4
:1046F0003B6800933B6900222021F86800F03FF9F5
:104700000346FB75FB7D002B3DD1FB681B687A6877
:1047100012689A62FB681B687A6852685A62FB6882
:104720001B687A689268DA62FB681B681B6823F46E
:1047300040027B681B691A43FB681B6842F48002D5
:104740001A607B68DA68BB689A624FF00062B968E9
:10475000F86800F04BF93B6800933B69012208219F
:10476000F86800F00CF90346FB75FB7D002B0AD1BD
:10477000FB681B680822DA60FB68012283F841208D
:1047800001E00223FB75FB68002283F84020FB7DDB
:1047900018461837BD4680BD80B588B002AFF860B6
:1047A000B9607A60FBF77CFF3861FB6893F84030B2
:1047B000DBB2012B01D102234CE0FB68012283F81C
:1047C0004020FB6893F84130DBB2012B3BD1FB6802
:1047D00000225A64FB68822283F84120FB689B6CAC
:1047E00000933B6900222021F86800F0C8F80346D6
:1047F000FB75FB7D002B28D1FB681B681B6823F031
:1048000008017B685A68FB681B680A431A607B686A
:104810005B68082B10D1FB681B687A6812681A6302
:10482000FB681B681022DA60FB681B681A68FB686B
:104830001B6842F480121A604FF04062B968F86851
:1048400000F0D4F801E00223FB75FB68002283F836
:104850004020FB7D18461837BD4680BD80B483B02C
:1048600000AF786000BF0C37BD465DF8047B704731
:1048700080B483B000AF786000BF0C37BD465DF8F0
:10488000047B704780B483B000AF786000BF0C3702
:10489000BD465DF8047B704780B483B000AF78609C
:1048A00000BF0C37BD465DF8047B704780B483B011
:1048B00000AF786000BF0C37BD465DF8047B7047E1
:1048C00080B483B000AF786000BF0C37BD465DF8A0
:1048D000047B704780B483B000AF786000BF0C37B2
:1048E000BD465DF8047B704780B483B000AF78604C
:1048F00000BF0C37BD465DF8047B704780B483B0C1
:1049000000AF786039607B683A689A6400BF0C3702
:10491000BD465DF8047B704780B584B000AF786019
:104920007B689B6BFB60FB6800229A63FB6800223C
:10493000DA62FB6893F84130DBB2082B14D1FB68D4
:104940001B680222DA60FB681B681A68FB681B6838
:1049500042F400321A60FB681B681A68FB681B6827
:1049600042F002021A6006E0FB68012283F841204F
:10497000F868FFF773FF00BF1037BD4680BD80B5F4
:1049800084B000AFF860B9603B601346FB711AE079
:10499000BB69B3F1FF3F16D0FBF782FE02463B68CE
:1049A000D31ABA699A4202D3BB69002B0BD1FB68B8
:1049B000042283F84120FB685B6C43F00102FB6832
:1049C0005A6401230EE0FB681B689A68BB681340B9
:1049D000002B14BF01230023DBB21A46FB799A4255
:1049E000D6D1002318461037BD4680BD80B485B0AF
:1049F00000AFF860B9607A60BB685B6A002B09D0D1
:104A00007B68B3F1406F05D0BB689A6AFB681B688E
:104A1000013A1A61BB689B69002B00F0B980BB6842
:104A20001B6A002B5FD0FB681B68BA689268DA616A
:104A3000BB68DB69002B31D0BB68DA6ABB681B6BD3
:104A40001A43BB685B6B1A43BB685B6A1A43BB685B
:104A50005B699B041A43BB681B691A43BB681B6AEA
:104A60001A43BB68DB681A43BB68DB691A43BB683F
:104A70009B691A43BB681B6842EA0301FB681B6819
:104A80007A680A435A617B68B3F1406F00F02E8167
:104A9000FB681B68BA6852689A6127E1BB68DA6AEA
:104AA000BB681B6B1A43BB685B6B1A43BB685B6AD2
:104AB0001A43BB685B699B041A43BB681B691A43B2
:104AC000BB681B6A1A43BB68DB691A43BB689B69F6
:104AD0001A43BB681B6842EA0301FB681B687A68DB
:104AE0000A435A6102E1BB68DB69002B2ED0BB6828
:104AF000DA6ABB681B6B1A43BB685B6B1A43BB6803
:104B00005B6A1A43BB685B699B041A43BB681B6AF8
:104B10001A43BB68DB681A43BB68DB691A43BB688E
:104B20009B691A43BB681B6842EA0301FB681B6868
:104B30007A680A435A617B68B3F1406F00F0D6800F
:104B4000FB681B68BA6852689A61CFE0BB68DA6A92
:104B5000BB681B6B1A43BB685B6B1A43BB685B6A21
:104B60001A43BB685B699B041A43BB681B6A1A4300
:104B7000BB68DB691A43BB689B691A43BB681B6847
:104B800042EA0301FB681B687A680A435A61ADE098
:104B9000BB681B6A002B58D0FB681B68BA68926818
:104BA000DA61BB68DB69002B2DD0BB68DA6ABB68B1
:104BB0001B6B1A43BB685B6B1A43BB685B6A1A4387
:104BC000BB685B699B041A43BB681B691A43BB68DB
:104BD0001B6A1A43BB68DB681A43BB68DB691A436C
:104BE000BB689B6942EA0301FB681B687A680A4359
:104BF0005A617B68B3F1406F78D0FB681B68BA6874
:104C000052689A6172E0BB68DA6ABB681B6B1A4330
:104C1000BB685B6B1A43BB685B6A1A43BB685B6922
:104C20009B041A43BB681B691A43BB681B6A1A437F
:104C3000BB68DB691A43BB689B6942EA0301FB68F6
:104C40001B687A680A435A6150E0BB68DB69002B35
:104C50002AD0BB68DA6ABB681B6B1A43BB685B6B04
:104C60001A43BB685B6A1A43BB685B699B041A43BF
:104C7000BB681B6A1A43BB68DB681A43BB68DB6905
:104C80001A43BB689B6942EA0301FB681B687A68A8
:104C90000A435A617B68B3F1406F27D0FB681B68F9
:104CA000BA6852689A6121E0BB685B6A002B1DD02C
:104CB000BB68DA6ABB681B6B1A43BB685B6B1A4341
:104CC000BB685B6A1A43BB685B699B041A43BB6899
:104CD0001B6A1A43BB68DB691A43BB689B6942EADB
:104CE0000301FB681B687A680A435A6100BF1437E6
:104CF000BD465DF8047B704780B586B000AF786034
:104D00000023FB757B68002B01D101239BE27B68AC
:104D10001B6803F00103002B00F08780964B9B6813
:104D200003F00C03042B0CD0934B9B6803F00C0393
:104D3000082B12D1904B5B6803F48003B3F5800F0E
:104D40000BD18D4B1B6803F40033002B6CD07B68B8
:104D50005B68002B68D1012375E27B685B68B3F563
:104D6000803F06D1844B1B68834A43F48033136031
:104D70002EE07B685B68002B0CD17F4B1B687E4A62
:104D800023F4803313607C4B1B687B4A23F480231D
:104D900013601DE07B685B68B3F5A02F0CD1764BE8
:104DA0001B68754A43F480231360734B1B68724A77
:104DB00043F4803313600BE06F4B1B686E4A23F49F
:104DC000803313606C4B1B686B4A23F480231360A1
:104DD0007B685B68002B13D0FBF762FC386108E04E
:104DE000FBF75EFC02463B69D31A642B01D903230F
:104DF00029E2614B1B6803F40033002BF0D014E070
:104E0000FBF74EFC386108E0FBF74AFC02463B69C1
:104E1000D31A642B01D9032315E2574B1B6803F403
:104E20000033002BF0D100E000BF7B681B6803F06B
:104E30000203002B69D0504B9B6803F00C03002B3E
:104E40000BD04D4B9B6803F00C03082B1CD14A4B35
:104E50005B6803F48003002B16D1474B1B6803F0FB
:104E60000203002B05D07B68DB68012B01D00123F6
:104E7000E9E1414B1B6823F0F8027B681B69DB000A
:104E80003D4913430B6040E07B68DB68002B23D077
:104E9000394B1B68384A43F001031360FBF700FCF1
:104EA000386108E0FBF7FCFB02463B69D31A022B92
:104EB00001D90323C7E1304B1B6803F00203002B29
:104EC000F0D02D4B1B6823F0F8027B681B69DB00D8
:104ED000294913430B6018E0274B1B68264A23F02F
:104EE00001031360FBF7DCFB386108E0FBF7D8FB3C
:104EF00002463B69D31A022B01D90323A3E11E4BBF
:104F00001B6803F00203002BF0D17B681B6803F0E1
:104F10000803002B38D07B685B69002B19D0164B37
:104F20005B6F154A43F001035367FBF7B9FB386128
:104F300008E0FBF7B5FB02463B69D31A022B01D907
:104F4000032380E10C4B5B6F03F00203002BF0D0D6
:104F50001AE0094B5B6F084A23F001035367FBF724
:104F60009FFB38610AE0FBF79BFB02463B69D31AC3
:104F7000022B03D9032366E100380240924B5B6F9A
:104F800003F00203002BEED17B681B6803F00403DF
:104F9000002B00F0A4808C4B1B6C03F08053002B83
:104FA0000DD1894B1B6C884A43F080531364864BA8
:104FB0001B6C03F08053BB60BB680123FB75834B04
:104FC0001B6803F48073002B18D1804B1B687F4A49
:104FD00043F480731360FBF763FB386108E0FBF771
:104FE0005FFB02463B69D31A642B01D903232AE1F4
:104FF000764B1B6803F48073002BF0D07B689B68B2
:10500000012B06D1704B1B6F6F4A43F001031367EE
:105010002DE07B689B68002B0CD16B4B1B6F6A4AA1
:1050200023F001031367684B1B6F674A23F00403E7
:1050300013671CE07B689B68052B0CD1624B1B6FD0
:10504000614A43F0040313675F4B1B6F5E4A43F0F2
:10505000010313670BE05C4B1B6F5B4A23F00103FA
:105060001367594B1B6F584A23F0040313677B687F
:105070009B68002B15D0FBF713FB38610AE0FBF7A8
:105080000FFB02463B69D31A41F28832934201D9A1
:105090000323D8E04C4B1B6F03F00203002BEED030
:1050A00014E0FBF7FDFA38610AE0FBF7F9FA024673
:1050B0003B69D31A41F28832934201D90323C2E0FB
:1050C000414B1B6F03F00203002BEED1FB7D012B44
:1050D00005D13D4B1B6C3C4A23F0805313647B6825
:1050E0009B69002B00F0AE80374B9B6803F00C03EC
:1050F000082B6DD07B689B69022B4BD1324B1B6810
:10510000314A23F080731360FBF7CAFA386108E074
:10511000FBF7C6FA02463B69D31A022B01D90323D7
:1051200091E0294B1B6803F00073002BF0D17B68E2
:10513000DA697B681B6A1A437B685B6A9B011A43C6
:105140007B689B6A5B08013B1B041A437B68DB6A34
:105150001B061A437B681B6B1B071B4913434B60E1
:10516000194B1B68184A43F080731360FBF798FAD9
:10517000386108E0FBF794FA02463B69D31A022B28
:1051800001D903235FE0104B1B6803F00073002B71
:10519000F0D057E00C4B1B680B4A23F08073136070
:1051A000FBF77EFA386108E0FBF77AFA02463B69C2
:1051B000D31A022B01D9032345E0034B1B6803F0EC
:1051C0000073002BF0D13DE0003802400070004039
:1051D0001F4B5B68FB607B689B69012B30D0FB68D1
:1051E00003F480027B68DB699A4229D1FB6803F0F3
:1051F0003F027B681B6A9A4222D1FA6847F6C07365
:1052000013407A68526A9201934219D1FB6803F401
:1052100040327B689B6A5B08013B1B049A420FD1BA
:10522000FB6803F070627B68DB6A1B069A4207D159
:10523000FB6803F0E0427B681B6B1B079A4201D0BE
:10524000012300E0002318461837BD4680BD00BF8B
:105250000038024080B584B000AF78603960002328
:10526000FB607B68002B01D10123D0E06A4B1B68F7
:1052700003F00F033A689A4210D9674B1B6823F07A
:105280000F0265493B6813430B60634B1B6803F0D7
:105290000F033A689A4201D00123B8E07B681B688B
:1052A00003F00203002B20D07B681B6803F004038B
:1052B000002B05D0594B9B68584A43F4E053936048
:1052C0007B681B6803F00803002B05D0534B9B68D9
:1052D000524A43F460439360504B9B6823F0F002C2
:1052E0007B689B684D4913438B607B681B6803F0A8
:1052F0000103002B40D07B685B68012B07D1474B33
:105300001B6803F40033002B15D101237FE07B6879
:105310005B68022B07D1414B1B6803F00073002B25
:1053200009D1012373E03D4B1B6803F00203002BFE
:1053300001D101236BE0394B9B6823F003027B68AA
:105340005B68364913438B60FBF7AAF9F8600AE003
:10535000FBF7A6F90246FB68D31A41F28832934262
:1053600001D9032353E02D4B9B6803F00C027B68AB
:105370005B689B009A42EBD1274B1B6803F00F033D
:105380003A689A4210D2244B1B6823F00F0222493C
:105390003B6813430B60204B1B6803F00F033A6814
:1053A0009A4201D0012332E07B681B6803F00403BA
:1053B000002B08D0194B9B6823F4E0527B68DB6814
:1053C000164913438B607B681B6803F00803002BAE
:1053D00009D0124B9B6823F460427B681B69DB0099
:1053E0000E4913438B6000F021F801460B4B9B687C
:1053F0001B0903F00F030A4AD35C21FA03F3094A9D
:105400001360094B1B681846FBF706F90023184682
:105410001037BD4680BD00BF003C0240003802404E
:105420009CA501081000002004000020F0B585B004
:1054300000AF00237B600023FB6000233B60002360
:10544000BB60504B9B6803F00C03042B07D0082B68
:1054500008D0002B40F08D804B4BBB608CE04B4B59
:10546000BB6089E0474B5B6803F03F037B60454BC3
:105470005B6803F48003002B23D0424B5B689B09DD
:105480004FF0000440F2FF114FF0000203EA010563
:1054900004EA02063D4A02FB06F1002202FB05F285
:1054A0000A443A49A5FB0101531819467B684FF09D
:1054B00000041A462346FAF713FF03460C46FB6026
:1054C00049E0304B5B689B094FF0000440F2FF114C
:1054D0004FF0000203EA010504EA020629463246BB
:1054E0004FF000034FF00004540144EAD1644B0133
:1054F00019462246491B62EB06024FF000034FF0AB
:105500000004940144EA91648B015B1A64EB020489
:105510004FF000014FF00002E20042EA5372D9005E
:105520000B4614465B1944EB06044FF000014FF0A4
:105530000002A20242EA935299020B461446184610
:1055400021467B684FF000041A462346FAF7C8FE4E
:1055500003460C46FB600B4B5B681B0C03F003031C
:1055600001335B003B60FA683B68B2FBF3F3BB605E
:1055700002E0054BBB6000BFBB6818461437BD4650
:10558000F0BD00BF003802400024F40040787D01E7
:1055900080B588B000AF786000237B6100233B6159
:1055A0000023FB600023FB610023BB617B681B6859
:1055B00003F00103002B12D0694B9B68684A23F467
:1055C00000039360664B9A687B685B6B6449134386
:1055D0008B607B685B6B002B01D10123FB617B68D7
:1055E0001B6803F40023002B17D05D4BD3F88C30DD
:1055F00023F440127B68DB6B59491343C1F88C30AC
:105600007B68DB6BB3F5801F01D10123FB617B68F5
:10561000DB6B002B01D10123BB617B681B6803F4AA
:105620008013002B17D04E4BD3F88C3023F440025C
:105630007B681B6C4A491343C1F88C307B681B6C38
:10564000B3F5800F01D10123FB617B681B6C002B3C
:1056500001D10123BB617B681B6803F08073002BC1
:1056600001D00123FB617B681B6803F02003002B42
:1056700000F08B803A4B1B6C394A43F08053136423
:10568000374B1B6C03F08053BB60BB68354B1B680A
:10569000344A43F480731360FBF702F8786108E042
:1056A000FAF7FEFF02467B69D31A642B01D9032364
:1056B0008DE32C4B1B6803F48073002BF0D0284B38
:1056C0001B6F03F440733B613B69002B35D07B6853
:1056D0001B6B03F440733A699A422ED0204B1B6F28
:1056E00023F440733B611E4B1B6F1D4A43F4803310
:1056F00013671B4B1B6F1A4A23F480331367184A36
:105700003B691367164B1B6F03F00103012B14D188
:10571000FAF7C6FF78610AE0FAF7C2FF02467B6932
:10572000D31A41F28832934201D903234FE30C4B41
:105730001B6F03F00203002BEED07B681B6B03F49E
:105740004073B3F5407F11D1054B9B6823F4F812E9
:105750007B68196B044B0B40014913438B600BE0D2
:105760000038024000700040FFFCFF0FB34B9B6805
:10577000B24A23F4F8139360B04B1A6F7B681B6B2B
:10578000C3F30B03AD4913430B677B681B6803F03E
:105790001003002B10D0A94BD3F88C30A74A23F06C
:1057A0008073C2F88C30A54BD3F88C207B689B6B40
:1057B000A2491343C1F88C307B681B6803F4804313
:1057C000002B0AD09D4BD3F8903023F440327B68F5
:1057D0005B6E9A491343C1F890307B681B6803F4F1
:1057E0000043002B0AD0954BD3F8903023F440228D
:1057F0007B689B6E91491343C1F890307B681B68AE
:1058000003F48033002B0AD08C4BD3F8903023F470
:1058100040127B68DB6E89491343C1F890307B6886
:105820001B6803F40033002B0AD0844BD3F890306C
:1058300023F440027B681B6F80491343C1F890300A
:105840007B681B6803F04003002B0AD07B4BD3F826
:10585000903023F003027B685B6C78491343C1F8F6
:1058600090307B681B6803F08003002B0AD0734BD9
:10587000D3F8903023F00C027B689B6C6F49134384
:10588000C1F890307B681B6803F48073002B0AD04A
:105890006A4BD3F8903023F030027B68DB6C6749A9
:1058A0001343C1F890307B681B6803F40073002B2E
:1058B0000AD0624BD3F8903023F0C0027B681B6D96
:1058C0005E491343C1F890307B681B6803F4806322
:1058D000002B0AD0594BD3F8903023F440727B68E8
:1058E0005B6D56491343C1F890307B681B6803F425
:1058F0000063002B0AD0514BD3F8903023F4406260
:105900007B689B6D4D491343C1F890307B681B68E1
:1059100003F48053002B0AD0484BD3F8903023F483
:1059200040527B68DB6D45491343C1F890307B687A
:105930001B6803F40053002B0AD0404BD3F890307F
:1059400023F440427B681B6E3C491343C1F89030FE
:105950007B681B6803F48003002B0AD0374BD3F815
:10596000903023F080627B689B6F34491343C1F809
:1059700090307B681B6803F40013002B11D02F4B71
:10598000D3F8903023F000627B68DB6F2B49134320
:10599000C1F890307B68DB6FB3F1006F01D1012358
:1059A000BB617B681B6803F00803002B01D0012357
:1059B000BB617B681B6803F48023002B0AD01F4B5C
:1059C000D3F8903023F040727B685B6F1B49134320
:1059D000C1F890307B681B6803F40003002B0BD0E8
:1059E000164BD3F8903023F080527B68D3F8803088
:1059F00012491343C1F890307B681B6803F0806341
:105A0000002B0BD00D4BD3F8903023F000527B6865
:105A1000D3F8843009491343C1F890307B681B6880
:105A200003F00063002B0FD0044BD3F88C3023F02D
:105A300000727B68D3F8883002E000BF0038024073
:105A400085491343C1F88C307B681B6803F0805391
:105A5000002B0BD0804BD3F88C3023F080627B6816
:105A6000D3F88C307C491343C1F88C30FB69012B8F
:105A700005D07B681B68B3F1007F40F0D680764B81
:105A80001B68754A23F080631360FAF709FE78619A
:105A900008E0FAF705FE02467B69D31A642B01D9A8
:105AA000032394E16C4B1B6803F00063002BF0D1DF
:105AB0007B681B6803F00103002B21D07B685B6BC4
:105AC000002B1DD1644BD3F884301B0C03F003036F
:105AD0003B61614BD3F884301B0E03F00F03FB6076
